:020000020000FC
:040000000C941E003E
:040010000C946600E6
:100038000C9444000DE304B905B900E007B902E0E7
:1000480004BD05E005BD0CE707BD02E000936E00A6
:1000580080E020E030E040E002E00093680004E047
:1000680000936C00789400000000000000000F6FFF
:10007800000000000000B9F7000000000000FCCFFD
:100088001FB783958D3709F01BC01D9A23953395AB
:10009800439500C0223039F0343041F0483049F0FF
:1000A8004F3051F00DC01C9A20E0F4CF1B9A30E07D
:1000B800F1CF1A9A40E0EECF20E030E040E000C0F7
:1000C8001FBF18951FB700C0319B03C0339B03C0E7
:1000D800FBCF1FBF189520E030E040E00CE305B9E6
:0200E800F8CF4F
:00000001FF
